{
  "_format": "hh-sol-artifact-1",
  "contractName": "TokenFarm",
  "sourceName": "contracts/TokenFarm.sol",
  "abi": [
    {
      "inputs": [
        {
          "internalType": "contract DAppToken",
          "name": "_dappToken",
          "type": "address"
        },
        {
          "internalType": "contract LPToken",
          "name": "_lpToken",
          "type": "address"
        }
      ],
      "stateMutability": "nonpayable",
      "type": "constructor"
    },
    {
      "anonymous": false,
      "inputs": [
        {
          "indexed": true,
          "internalType": "address",
          "name": "user",
          "type": "address"
        },
        {
          "indexed": false,
          "internalType": "uint256",
          "name": "amount",
          "type": "uint256"
        }
      ],
      "name": "Deposit",
      "type": "event"
    },
    {
      "anonymous": false,
      "inputs": [
        {
          "indexed": true,
          "internalType": "address",
          "name": "user",
          "type": "address"
        },
        {
          "indexed": false,
          "internalType": "uint256",
          "name": "amount",
          "type": "uint256"
        }
      ],
      "name": "RewardsClaimed",
      "type": "event"
    },
    {
      "anonymous": false,
      "inputs": [
        {
          "indexed": false,
          "internalType": "uint256",
          "name": "totalRewards",
          "type": "uint256"
        }
      ],
      "name": "RewardsDistributed",
      "type": "event"
    },
    {
      "anonymous": false,
      "inputs": [
        {
          "indexed": true,
          "internalType": "address",
          "name": "user",
          "type": "address"
        },
        {
          "indexed": false,
          "internalType": "uint256",
          "name": "amount",
          "type": "uint256"
        }
      ],
      "name": "Withdraw",
      "type": "event"
    },
    {
      "inputs": [],
      "name": "accumulatedFees",
      "outputs": [
        {
          "internalType": "uint256",
          "name": "",
          "type": "uint256"
        }
      ],
      "stateMutability": "view",
      "type": "function"
    },
    {
      "inputs": [],
      "name": "claimRewards",
      "outputs": [],
      "stateMutability": "nonpayable",
      "type": "function"
    },
    {
      "inputs": [],
      "name": "dappToken",
      "outputs": [
        {
          "internalType": "contract DAppToken",
          "name": "",
          "type": "address"
        }
      ],
      "stateMutability": "view",
      "type": "function"
    },
    {
      "inputs": [
        {
          "internalType": "uint256",
          "name": "_amount",
          "type": "uint256"
        }
      ],
      "name": "deposit",
      "outputs": [],
      "stateMutability": "nonpayable",
      "type": "function"
    },
    {
      "inputs": [],
      "name": "distributeRewardsAll",
      "outputs": [],
      "stateMutability": "nonpayable",
      "type": "function"
    },
    {
      "inputs": [],
      "name": "feePercentage",
      "outputs": [
        {
          "internalType": "uint256",
          "name": "",
          "type": "uint256"
        }
      ],
      "stateMutability": "view",
      "type": "function"
    },
    {
      "inputs": [
        {
          "internalType": "address",
          "name": "beneficiary",
          "type": "address"
        }
      ],
      "name": "getPendingRewards",
      "outputs": [
        {
          "internalType": "uint256",
          "name": "",
          "type": "uint256"
        }
      ],
      "stateMutability": "view",
      "type": "function"
    },
    {
      "inputs": [],
      "name": "lpToken",
      "outputs": [
        {
          "internalType": "contract LPToken",
          "name": "",
          "type": "address"
        }
      ],
      "stateMutability": "view",
      "type": "function"
    },
    {
      "inputs": [],
      "name": "name",
      "outputs": [
        {
          "internalType": "string",
          "name": "",
          "type": "string"
        }
      ],
      "stateMutability": "view",
      "type": "function"
    },
    {
      "inputs": [],
      "name": "owner",
      "outputs": [
        {
          "internalType": "address",
          "name": "",
          "type": "address"
        }
      ],
      "stateMutability": "view",
      "type": "function"
    },
    {
      "inputs": [],
      "name": "rewardPerBlock",
      "outputs": [
        {
          "internalType": "uint256",
          "name": "",
          "type": "uint256"
        }
      ],
      "stateMutability": "view",
      "type": "function"
    },
    {
      "inputs": [
        {
          "internalType": "uint256",
          "name": "_newFee",
          "type": "uint256"
        }
      ],
      "name": "setFeePercentage",
      "outputs": [],
      "stateMutability": "nonpayable",
      "type": "function"
    },
    {
      "inputs": [
        {
          "internalType": "uint256",
          "name": "_newReward",
          "type": "uint256"
        }
      ],
      "name": "setRewardPerBlock",
      "outputs": [],
      "stateMutability": "nonpayable",
      "type": "function"
    },
    {
      "inputs": [
        {
          "internalType": "address",
          "name": "",
          "type": "address"
        }
      ],
      "name": "stakers",
      "outputs": [
        {
          "internalType": "uint256",
          "name": "stakingBalance",
          "type": "uint256"
        },
        {
          "internalType": "uint256",
          "name": "checkpoint",
          "type": "uint256"
        },
        {
          "internalType": "uint256",
          "name": "pendingRewards",
          "type": "uint256"
        },
        {
          "internalType": "bool",
          "name": "hasStaked",
          "type": "bool"
        },
        {
          "internalType": "bool",
          "name": "isStaking",
          "type": "bool"
        }
      ],
      "stateMutability": "view",
      "type": "function"
    },
    {
      "inputs": [
        {
          "internalType": "uint256",
          "name": "",
          "type": "uint256"
        }
      ],
      "name": "stakersList",
      "outputs": [
        {
          "internalType": "address",
          "name": "",
          "type": "address"
        }
      ],
      "stateMutability": "view",
      "type": "function"
    },
    {
      "inputs": [],
      "name": "totalStakingBalance",
      "outputs": [
        {
          "internalType": "uint256",
          "name": "",
          "type": "uint256"
        }
      ],
      "stateMutability": "view",
      "type": "function"
    },
    {
      "inputs": [],
      "name": "withdraw",
      "outputs": [],
      "stateMutability": "nonpayable",
      "type": "function"
    },
    {
      "inputs": [
        {
          "internalType": "address",
          "name": "to",
          "type": "address"
        }
      ],
      "name": "withdrawAccumulatedFees",
      "outputs": [],
      "stateMutability": "nonpayable",
      "type": "function"
    }
  ],
  "bytecode": "0x60806040526040518060400160405280601781526020017f50726f706f7274696f6e616c20546f6b656e204661726d0000000000000000008152506000908161004891906103a0565b5034801561005557600080fd5b5060405161245138038061245183398181016040528101906100779190610525565b81600260006101000a81548173ffffffffffffffffffffffffffffffffffffffff021916908373ffffffffffffffffffffffffffffffffffffffff16021790555080600360006101000a81548173ffffffffffffffffffffffffffffffffffffffff021916908373ffffffffffffffffffffffffffffffffffffffff16021790555033600160006101000a81548173ffffffffffffffffffffffffffffffffffffffff021916908373ffffffffffffffffffffffffffffffffffffffff160217905550670de0b6b3a76400006005819055505050610565565b600081519050919050565b7f4e487b7100000000000000000000000000000000000000000000000000000000600052604160045260246000fd5b7f4e487b7100000000000000000000000000000000000000000000000000000000600052602260045260246000fd5b600060028204905060018216806101d157607f821691505b6020821081036101e4576101e361018a565b5b50919050565b60008190508160005260206000209050919050565b60006020601f8301049050919050565b600082821b905092915050565b60006008830261024c7fffffffffffffffffffffffffffffffffffffffffffffffffffffffffffffffff8261020f565b610256868361020f565b95508019841693508086168417925050509392505050565b6000819050919050565b6000819050919050565b600061029d6102986102938461026e565b610278565b61026e565b9050919050565b6000819050919050565b6102b783610282565b6102cb6102c3826102a4565b84845461021c565b825550505050565b600090565b6102e06102d3565b6102eb8184846102ae565b505050565b5b8181101561030f576103046000826102d8565b6001810190506102f1565b5050565b601f82111561035457610325816101ea565b61032e846101ff565b8101602085101561033d578190505b610351610349856101ff565b8301826102f0565b50505b505050565b600082821c905092915050565b600061037760001984600802610359565b1980831691505092915050565b60006103908383610366565b9150826002028217905092915050565b6103a982610150565b67ffffffffffffffff8111156103c2576103c161015b565b5b6103cc82546101b9565b6103d7828285610313565b600060209050601f83116001811461040a57600084156103f8578287015190505b6104028582610384565b86555061046a565b601f198416610418866101ea565b60005b828110156104405784890151825560018201915060208501945060208101905061041b565b8683101561045d5784890151610459601f891682610366565b8355505b6001600288020188555050505b505050505050565b600080fd5b600073ffffffffffffffffffffffffffffffffffffffff82169050919050565b60006104a282610477565b9050919050565b60006104b482610497565b9050919050565b6104c4816104a9565b81146104cf57600080fd5b50565b6000815190506104e1816104bb565b92915050565b60006104f282610497565b9050919050565b610502816104e7565b811461050d57600080fd5b50565b60008151905061051f816104f9565b92915050565b6000806040838503121561053c5761053b610472565b5b600061054a858286016104d2565b925050602061055b85828601610510565b9150509250929050565b611edd806105746000396000f3fe608060405234801561001057600080fd5b50600436106101165760003560e01c80639168ae72116100a2578063bb872b4a11610071578063bb872b4a1461029d578063c1f10663146102b9578063db03e227146102d5578063e766c835146102df578063f6ed2017146102fd57610116565b80639168ae7214610213578063a001ecdd14610247578063ae06c1b714610265578063b6b55f251461028157610116565b8063587f5ed7116100e9578063587f5ed71461017d5780635eb186f81461019b5780635fcbd285146101b95780638ae39cac146101d75780638da5cb5b146101f557610116565b806306fdde031461011b57806331509d4a14610139578063372500ab146101695780633ccfd60b14610173575b600080fd5b61012361032d565b60405161013091906114ef565b60405180910390f35b610153600480360381019061014e919061154c565b6103bb565b60405161016091906115ba565b60405180910390f35b6101716103fa565b005b61017b610660565b005b6101856108ba565b60405161019291906115e4565b60405180910390f35b6101a36108c0565b6040516101b0919061165e565b60405180910390f35b6101c16108e6565b6040516101ce919061169a565b60405180910390f35b6101df61090c565b6040516101ec91906115e4565b60405180910390f35b6101fd610912565b60405161020a91906115ba565b60405180910390f35b61022d600480360381019061022891906116e1565b610938565b60405161023e959493929190611729565b60405180910390f35b61024f610988565b60405161025c91906115e4565b60405180910390f35b61027f600480360381019061027a919061154c565b61098e565b005b61029b6004803603810190610296919061154c565b610a6d565b005b6102b760048036038101906102b2919061154c565b610cf4565b005b6102d360048036038101906102ce91906116e1565b610dd1565b005b6102dd610f46565b005b6102e76111c9565b6040516102f491906115e4565b60405180910390f35b610317600480360381019061031291906116e1565b6111cf565b60405161032491906115e4565b60405180910390f35b6000805461033a906117ab565b80601f0160208091040260200160405190810160405280929190818152602001828054610366906117ab565b80156103b35780601f10610388576101008083540402835291602001916103b3565b820191906000526020600020905b81548152906001019060200180831161039657829003601f168201915b505050505081565b600481815481106103cb57600080fd5b906000526020600020016000915054906101000a900473ffffffffffffffffffffffffffffffffffffffff1681565b600960003373ffffffffffffffffffffffffffffffffffffffff1673ffffffffffffffffffffffffffffffffffffffff16815260200190815260200160002060030160019054906101000a900460ff16610489576040517f08c379a000000000000000000000000000000000000000000000000000000000815260040161048090611828565b60405180910390fd5b610492336112f3565b6000600960003373ffffffffffffffffffffffffffffffffffffffff1673ffffffffffffffffffffffffffffffffffffffff168152602001908152602001600020905060008160020154905060008111610521576040517f08c379a000000000000000000000000000000000000000000000000000000000815260040161051890611894565b60405180910390fd5b60006127106006548361053491906118e3565b61053e9190611954565b90506000818361054e9190611985565b9050600082111561057357816007600082825461056b91906119b9565b925050819055505b60008460020181905550600260009054906101000a900473ffffffffffffffffffffffffffffffffffffffff1673ffffffffffffffffffffffffffffffffffffffff166340c10f1933836040518363ffffffff1660e01b81526004016105da9291906119ed565b600060405180830381600087803b1580156105f457600080fd5b505af1158015610608573d6000803e3d6000fd5b505050503373ffffffffffffffffffffffffffffffffffffffff167ffc30cddea38e2bf4d6ea7d3f9ed3b6ad7f176419f4963bd81318067a4aee73fe8460405161065291906115e4565b60405180910390a250505050565b600960003373ffffffffffffffffffffffffffffffffffffffff1673ffffffffffffffffffffffffffffffffffffffff16815260200190815260200160002060030160019054906101000a900460ff166106ef576040517f08c379a00000000000000000000000000000000000000000000000000000000081526004016106e690611828565b60405180910390fd5b6000600960003373ffffffffffffffffffffffffffffffffffffffff1673ffffffffffffffffffffffffffffffffffffffff16815260200190815260200160002090506000816000015490506000811161077e576040517f08c379a000000000000000000000000000000000000000000000000000000000815260040161077590611a62565b60405180910390fd5b610787336112f3565b6000826000018190555080600860008282546107a39190611985565b9250508190555060008260030160016101000a81548160ff021916908315150217905550600360009054906101000a900473ffffffffffffffffffffffffffffffffffffffff1673ffffffffffffffffffffffffffffffffffffffff1663a9059cbb33836040518363ffffffff1660e01b81526004016108249291906119ed565b6020604051808303816000875af1158015610843573d6000803e3d6000fd5b505050506040513d601f19601f820116820180604052508101906108679190611aae565b503373ffffffffffffffffffffffffffffffffffffffff167f884edad9ce6fa2440d8a54cc123490eb96d2768479d49ff9c7366125a9424364826040516108ae91906115e4565b60405180910390a25050565b60075481565b600260009054906101000a900473ffffffffffffffffffffffffffffffffffffffff1681565b600360009054906101000a900473ffffffffffffffffffffffffffffffffffffffff1681565b60055481565b600160009054906101000a900473ffffffffffffffffffffffffffffffffffffffff1681565b60096020528060005260406000206000915090508060000154908060010154908060020154908060030160009054906101000a900460ff16908060030160019054906101000a900460ff16905085565b60065481565b600160009054906101000a900473ffffffffffffffffffffffffffffffffffffffff1673ffffffffffffffffffffffffffffffffffffffff163373ffffffffffffffffffffffffffffffffffffffff1614610a1e576040517f08c379a0000000000000000000000000000000000000000000000000000000008152600401610a1590611b4d565b60405180910390fd5b6103e8811115610a63576040517f08c379a0000000000000000000000000000000000000000000000000000000008152600401610a5a90611bb9565b60405180910390fd5b8060068190555050565b60008111610ab0576040517f08c379a0000000000000000000000000000000000000000000000000000000008152600401610aa790611c25565b60405180910390fd5b600360009054906101000a900473ffffffffffffffffffffffffffffffffffffffff1673ffffffffffffffffffffffffffffffffffffffff166323b872dd3330846040518463ffffffff1660e01b8152600401610b0f93929190611c45565b6020604051808303816000875af1158015610b2e573d6000803e3d6000fd5b505050506040513d601f19601f82011682018060405250810190610b529190611aae565b506000600960003373ffffffffffffffffffffffffffffffffffffffff1673ffffffffffffffffffffffffffffffffffffffff168152602001908152602001600020905081816000016000828254610baa91906119b9565b925050819055508160086000828254610bc391906119b9565b925050819055508060030160009054906101000a900460ff16610c615760018160030160006101000a81548160ff0219169083151502179055506004339080600181540180825580915050600190039060005260206000200160009091909190916101000a81548173ffffffffffffffffffffffffffffffffffffffff021916908373ffffffffffffffffffffffffffffffffffffffff1602179055505b60018160030160016101000a81548160ff0219169083151502179055506000816001015403610c9857438160010181905550610ca2565b610ca1336112f3565b5b3373ffffffffffffffffffffffffffffffffffffffff167fe1fffcc4923d04b559f4d29a8bfc6cda04eb5b0d3c460751c2402c5c5cc9109c83604051610ce891906115e4565b60405180910390a25050565b600160009054906101000a900473ffffffffffffffffffffffffffffffffffffffff1673ffffffffffffffffffffffffffffffffffffffff163373ffffffffffffffffffffffffffffffffffffffff1614610d84576040517f08c379a0000000000000000000000000000000000000000000000000000000008152600401610d7b90611b4d565b60405180910390fd5b60008111610dc7576040517f08c379a0000000000000000000000000000000000000000000000000000000008152600401610dbe90611cc8565b60405180910390fd5b8060058190555050565b600160009054906101000a900473ffffffffffffffffffffffffffffffffffffffff1673ffffffffffffffffffffffffffffffffffffffff163373ffffffffffffffffffffffffffffffffffffffff1614610e61576040517f08c379a0000000000000000000000000000000000000000000000000000000008152600401610e5890611b4d565b60405180910390fd5b6000600754905060008111610eab576040517f08c379a0000000000000000000000000000000000000000000000000000000008152600401610ea290611d34565b60405180910390fd5b6000600781905550600260009054906101000a900473ffffffffffffffffffffffffffffffffffffffff1673ffffffffffffffffffffffffffffffffffffffff166340c10f1983836040518363ffffffff1660e01b8152600401610f109291906119ed565b600060405180830381600087803b158015610f2a57600080fd5b505af1158015610f3e573d6000803e3d6000fd5b505050505050565b600160009054906101000a900473ffffffffffffffffffffffffffffffffffffffff1673ffffffffffffffffffffffffffffffffffffffff163373ffffffffffffffffffffffffffffffffffffffff1614610fd6576040517f08c379a0000000000000000000000000000000000000000000000000000000008152600401610fcd90611b4d565b60405180910390fd5b600160009054906101000a900473ffffffffffffffffffffffffffffffffffffffff1673ffffffffffffffffffffffffffffffffffffffff163373ffffffffffffffffffffffffffffffffffffffff1614611066576040517f08c379a000000000000000000000000000000000000000000000000000000000815260040161105d90611dc6565b60405180910390fd5b6000600854116110ab576040517f08c379a00000000000000000000000000000000000000000000000000000000081526004016110a290611a62565b60405180910390fd5b60005b600480549050811015611180576000600482815481106110d1576110d0611de6565b5b9060005260206000200160009054906101000a900473ffffffffffffffffffffffffffffffffffffffff1690506000600960008373ffffffffffffffffffffffffffffffffffffffff1673ffffffffffffffffffffffffffffffffffffffff16815260200190815260200160002090508060030160019054906101000a900460ff1680156111625750806001015443115b1561117157611170826112f3565b5b505080806001019150506110ae565b507f6d1c76d614228b523baa4dcd9539e2c713b54ff4ab3ff2d1627e7f6cd32be4426008546005546111b291906118e3565b6040516111bf91906115e4565b60405180910390a1565b60085481565b600080600960008473ffffffffffffffffffffffffffffffffffffffff1673ffffffffffffffffffffffffffffffffffffffff1681526020019081526020016000209050600043905060008260000154148061123a57508160030160019054906101000a900460ff16155b8061124757506000600854145b80611256575081600101548111155b15611269578160020154925050506112ee565b600082600101548261127b9190611985565b90506000600854670de0b6b3a7640000856000015461129a91906118e3565b6112a49190611954565b90506000670de0b6b3a764000082846005546112c091906118e3565b6112ca91906118e3565b6112d49190611954565b90508085600201546112e691906119b9565b955050505050505b919050565b6000600960008373ffffffffffffffffffffffffffffffffffffffff1673ffffffffffffffffffffffffffffffffffffffff1681526020019081526020016000209050600043905081600101548111611381576040517f08c379a000000000000000000000000000000000000000000000000000000000815260040161137890611e87565b60405180910390fd5b6000600854116113c6576040517f08c379a00000000000000000000000000000000000000000000000000000000081526004016113bd90611a62565b60405180910390fd5b60008260010154826113d89190611985565b90506000600854670de0b6b3a764000085600001546113f791906118e3565b6114019190611954565b90506000670de0b6b3a7640000828460055461141d91906118e3565b61142791906118e3565b6114319190611954565b90508085600201600082825461144791906119b9565b92505081905550438560010181905550505050505050565b600081519050919050565b600082825260208201905092915050565b60005b8381101561149957808201518184015260208101905061147e565b60008484015250505050565b6000601f19601f8301169050919050565b60006114c18261145f565b6114cb818561146a565b93506114db81856020860161147b565b6114e4816114a5565b840191505092915050565b6000602082019050818103600083015261150981846114b6565b905092915050565b600080fd5b6000819050919050565b61152981611516565b811461153457600080fd5b50565b60008135905061154681611520565b92915050565b60006020828403121561156257611561611511565b5b600061157084828501611537565b91505092915050565b600073ffffffffffffffffffffffffffffffffffffffff82169050919050565b60006115a482611579565b9050919050565b6115b481611599565b82525050565b60006020820190506115cf60008301846115ab565b92915050565b6115de81611516565b82525050565b60006020820190506115f960008301846115d5565b92915050565b6000819050919050565b600061162461161f61161a84611579565b6115ff565b611579565b9050919050565b600061163682611609565b9050919050565b60006116488261162b565b9050919050565b6116588161163d565b82525050565b6000602082019050611673600083018461164f565b92915050565b60006116848261162b565b9050919050565b61169481611679565b82525050565b60006020820190506116af600083018461168b565b92915050565b6116be81611599565b81146116c957600080fd5b50565b6000813590506116db816116b5565b92915050565b6000602082840312156116f7576116f6611511565b5b6000611705848285016116cc565b91505092915050565b60008115159050919050565b6117238161170e565b82525050565b600060a08201905061173e60008301886115d5565b61174b60208301876115d5565b61175860408301866115d5565b611765606083018561171a565b611772608083018461171a565b9695505050505050565b7f4e487b7100000000000000000000000000000000000000000000000000000000600052602260045260246000fd5b600060028204905060018216806117c357607f821691505b6020821081036117d6576117d561177c565b5b50919050565b7f596f7520617265206e6f74207374616b696e6700000000000000000000000000600082015250565b600061181260138361146a565b915061181d826117dc565b602082019050919050565b6000602082019050818103600083015261184181611805565b9050919050565b7f4e6f2070656e64696e67207265776172647320746f20636c61696d0000000000600082015250565b600061187e601b8361146a565b915061188982611848565b602082019050919050565b600060208201905081810360008301526118ad81611871565b9050919050565b7f4e487b7100000000000000000000000000000000000000000000000000000000600052601160045260246000fd5b60006118ee82611516565b91506118f983611516565b925082820261190781611516565b9150828204841483151761191e5761191d6118b4565b5b5092915050565b7f4e487b7100000000000000000000000000000000000000000000000000000000600052601260045260246000fd5b600061195f82611516565b915061196a83611516565b92508261197a57611979611925565b5b828204905092915050565b600061199082611516565b915061199b83611516565b92508282039050818111156119b3576119b26118b4565b5b92915050565b60006119c482611516565b91506119cf83611516565b92508282019050808211156119e7576119e66118b4565b5b92915050565b6000604082019050611a0260008301856115ab565b611a0f60208301846115d5565b9392505050565b7f4e6f207374616b696e672062616c616e636520617661696c61626c6500000000600082015250565b6000611a4c601c8361146a565b9150611a5782611a16565b602082019050919050565b60006020820190508181036000830152611a7b81611a3f565b9050919050565b611a8b8161170e565b8114611a9657600080fd5b50565b600081519050611aa881611a82565b92915050565b600060208284031215611ac457611ac3611511565b5b6000611ad284828501611a99565b91505092915050565b7f4f6e6c79206f776e65722063616e2063616c6c20746869732066756e6374696f60008201527f6e00000000000000000000000000000000000000000000000000000000000000602082015250565b6000611b3760218361146a565b9150611b4282611adb565b604082019050919050565b60006020820190508181036000830152611b6681611b2a565b9050919050565b7f46656520746f6f20686967680000000000000000000000000000000000000000600082015250565b6000611ba3600c8361146a565b9150611bae82611b6d565b602082019050919050565b60006020820190508181036000830152611bd281611b96565b9050919050565b7f416d6f756e74206d7573742062652067726561746572207468616e2030000000600082015250565b6000611c0f601d8361146a565b9150611c1a82611bd9565b602082019050919050565b60006020820190508181036000830152611c3e81611c02565b9050919050565b6000606082019050611c5a60008301866115ab565b611c6760208301856115ab565b611c7460408301846115d5565b949350505050565b7f526577617264206d75737420626520706f736974697665000000000000000000600082015250565b6000611cb260178361146a565b9150611cbd82611c7c565b602082019050919050565b60006020820190508181036000830152611ce181611ca5565b9050919050565b7f4e6f206665657320746f20776974686472617700000000000000000000000000600082015250565b6000611d1e60138361146a565b9150611d2982611ce8565b602082019050919050565b60006020820190508181036000830152611d4d81611d11565b9050919050565b7f4f6e6c79206f776e65722063616e20646973747269627574652072657761726460008201527f7300000000000000000000000000000000000000000000000000000000000000602082015250565b6000611db060218361146a565b9150611dbb82611d54565b604082019050919050565b60006020820190508181036000830152611ddf81611da3565b9050919050565b7f4e487b7100000000000000000000000000000000000000000000000000000000600052603260045260246000fd5b7f4e6f206e657720626c6f636b732073696e6365206c61737420636865636b706f60008201527f696e740000000000000000000000000000000000000000000000000000000000602082015250565b6000611e7160238361146a565b9150611e7c82611e15565b604082019050919050565b60006020820190508181036000830152611ea081611e64565b905091905056fea264697066735822122078f1fcbcd66e1f057d5efba65731a5abf5ce0a7a04b7ca4c4ee76df6bdfe206564736f6c634300081c0033",
  "linkReferences": {},
  "deployedLinkReferences": {}
}